{
  "contractName": "Dumpling",
  "abi": [
    {
      "anonymous": false,
      "inputs": [
        {
          "indexed": true,
          "internalType": "address",
          "name": "lender",
          "type": "address"
        },
        {
          "indexed": false,
          "internalType": "uint256",
          "name": "amount",
          "type": "uint256"
        },
        {
          "indexed": false,
          "internalType": "uint256",
          "name": "duration",
          "type": "uint256"
        }
      ],
      "name": "FundsLent",
      "type": "event"
    },
    {
      "anonymous": false,
      "inputs": [
        {
          "indexed": true,
          "internalType": "address",
          "name": "lender",
          "type": "address"
        },
        {
          "indexed": false,
          "internalType": "uint256",
          "name": "amount",
          "type": "uint256"
        }
      ],
      "name": "FundsPulled",
      "type": "event"
    },
    {
      "anonymous": false,
      "inputs": [
        {
          "indexed": false,
          "internalType": "uint256",
          "name": "amount",
          "type": "uint256"
        }
      ],
      "name": "FundsWithdrawn",
      "type": "event"
    },
    {
      "inputs": [
        {
          "internalType": "uint256",
          "name": "duration",
          "type": "uint256"
        }
      ],
      "name": "lendFunds",
      "outputs": [],
      "stateMutability": "nonpayable",
      "type": "function"
    },
    {
      "inputs": [
        {
          "internalType": "uint256",
          "name": "amount",
          "type": "uint256"
        }
      ],
      "name": "withdrawFunds",
      "outputs": [],
      "stateMutability": "nonpayable",
      "type": "function"
    },
    {
      "inputs": [],
      "name": "pullFunds",
      "outputs": [],
      "stateMutability": "nonpayable",
      "type": "function"
    }
  ],
  "bytecode": "0x608060405234801561001057600080fd5b50611087806100206000396000f3fe608060405234801561001057600080fd5b50600436106100415760003560e01c8063155dd5ee14610046578063aa2d572114610062578063e43a0bb21461007e575b600080fd5b610060600480360381019061005b91906109f3565b610088565b005b61007c600480360381019061007791906109f3565b610262565b005b610086610619565b005b600360009054906101000a900473ffffffffffffffffffffffffffffffffffffffff1673ffffffffffffffffffffffffffffffffffffffff163373ffffffffffffffffffffffffffffffffffffffff1614610118576040517f08c379a000000000000000000000000000000000000000000000000000000000815260040161010f90610c09565b60405180910390fd5b600260009054906101000a900473ffffffffffffffffffffffffffffffffffffffff1673ffffffffffffffffffffffffffffffffffffffff1663a9059cbb600360009054906101000a900473ffffffffffffffffffffffffffffffffffffffff16836040518363ffffffff1660e01b8152600401610197929190610bc0565b602060405180830381600087803b1580156101b157600080fd5b505af11580156101c5573d6000803e3d6000fd5b505050506040513d601f19601f820116820180604052508101906101e991906109c6565b610228576040517f08c379a000000000000000000000000000000000000000000000000000000000815260040161021f90610c89565b60405180910390fd5b7f4a37b25aab49761ecf63117fe82b98d750917451133cf797507bc9fb5b96044a816040516102579190610cc9565b60405180910390a150565b62278d008114806102755750624f1a0081145b8061028257506276a70081145b6102c1576040517f08c379a00000000000000000000000000000000000000000000000000000000081526004016102b890610c49565b60405180910390fd5b600033905060008060008373ffffffffffffffffffffffffffffffffffffffff1673ffffffffffffffffffffffffffffffffffffffff1681526020019081526020016000205414610347576040517f08c379a000000000000000000000000000000000000000000000000000000000815260040161033e90610be9565b60405180910390fd5b6000600260009054906101000a900473ffffffffffffffffffffffffffffffffffffffff1673ffffffffffffffffffffffffffffffffffffffff1663dd62ed3e83306040518363ffffffff1660e01b81526004016103a6929190610b60565b60206040518083038186803b1580156103be57600080fd5b505afa1580156103d2573d6000803e3d6000fd5b505050506040513d601f19601f820116820180604052508101906103f69190610a20565b90506000811161043b576040517f08c379a000000000000000000000000000000000000000000000000000000000815260040161043290610c69565b60405180910390fd5b600260009054906101000a900473ffffffffffffffffffffffffffffffffffffffff1673ffffffffffffffffffffffffffffffffffffffff166323b872dd8330846040518463ffffffff1660e01b815260040161049a93929190610b89565b602060405180830381600087803b1580156104b457600080fd5b505af11580156104c8573d6000803e3d6000fd5b505050506040513d601f19601f820116820180604052508101906104ec91906109c6565b61052b576040517f08c379a000000000000000000000000000000000000000000000000000000000815260040161052290610c89565b60405180910390fd5b806000808473ffffffffffffffffffffffffffffffffffffffff1673ffffffffffffffffffffffffffffffffffffffff16815260200190815260200160002060008282546105799190610d1e565b9250508190555042600160008473ffffffffffffffffffffffffffffffffffffffff1673ffffffffffffffffffffffffffffffffffffffff168152602001908152602001600020819055508173ffffffffffffffffffffffffffffffffffffffff167f5b4b4fe0dff3024fa7b95a8159d16ecfa78a0784e2dc0c670d3d2b84a3d48b02828560405161060c929190610ce4565b60405180910390a2505050565b600033905060008060008373ffffffffffffffffffffffffffffffffffffffff1673ffffffffffffffffffffffffffffffffffffffff168152602001908152602001600020541161069f576040517f08c379a000000000000000000000000000000000000000000000000000000000815260040161069690610ca9565b60405180910390fd5b60006106aa82610873565b9050600081116106ef576040517f08c379a00000000000000000000000000000000000000000000000000000000081526004016106e690610c29565b60405180910390fd5b60008060008473ffffffffffffffffffffffffffffffffffffffff1673ffffffffffffffffffffffffffffffffffffffff16815260200190815260200160002081905550600260009054906101000a900473ffffffffffffffffffffffffffffffffffffffff1673ffffffffffffffffffffffffffffffffffffffff1663a9059cbb83836040518363ffffffff1660e01b8152600401610790929190610bc0565b602060405180830381600087803b1580156107aa57600080fd5b505af11580156107be573d6000803e3d6000fd5b505050506040513d601f19601f820116820180604052508101906107e291906109c6565b610821576040517f08c379a000000000000000000000000000000000000000000000000000000000815260040161081890610c89565b60405180910390fd5b8173ffffffffffffffffffffffffffffffffffffffff167f1a6b3ffc38e569eb77b736c56f6d826b44ad9f3df5f63ec4eac3dcb444668ea5826040516108679190610cc9565b60405180910390a25050565b6000806000808473ffffffffffffffffffffffffffffffffffffffff1673ffffffffffffffffffffffffffffffffffffffff1681526020019081526020016000205490506000600160008573ffffffffffffffffffffffffffffffffffffffff1673ffffffffffffffffffffffffffffffffffffffff168152602001908152602001600020549050600081426109099190610dff565b905060006276a70082106109205760679050610955565b624f1a0082106109335760669050610954565b62278d0082106109465760659050610953565b6000945050505050610982565b5b5b63bbf81e008282866109679190610da5565b6109719190610da5565b61097b9190610d74565b9450505050505b919050565b60008151905061099681611023565b92915050565b6000813590506109ab8161103a565b92915050565b6000815190506109c08161103a565b92915050565b6000602082840312156109dc576109db610ed9565b5b60006109ea84828501610987565b91505092915050565b600060208284031215610a0957610a08610ed9565b5b6000610a178482850161099c565b91505092915050565b600060208284031215610a3657610a35610ed9565b5b6000610a44848285016109b1565b91505092915050565b610a5681610e33565b82525050565b6000610a69602283610d0d565b9150610a7482610ede565b604082019050919050565b6000610a8c602083610d0d565b9150610a9782610f2d565b602082019050919050565b6000610aaf601783610d0d565b9150610aba82610f56565b602082019050919050565b6000610ad2601083610d0d565b9150610add82610f7f565b602082019050919050565b6000610af5601d83610d0d565b9150610b0082610fa8565b602082019050919050565b6000610b18601583610d0d565b9150610b2382610fd1565b602082019050919050565b6000610b3b601083610d0d565b9150610b4682610ffa565b602082019050919050565b610b5a81610e71565b82525050565b6000604082019050610b756000830185610a4d565b610b826020830184610a4d565b9392505050565b6000606082019050610b9e6000830186610a4d565b610bab6020830185610a4d565b610bb86040830184610b51565b949350505050565b6000604082019050610bd56000830185610a4d565b610be26020830184610b51565b9392505050565b60006020820190508181036000830152610c0281610a5c565b9050919050565b60006020820190508181036000830152610c2281610a7f565b9050919050565b60006020820190508181036000830152610c4281610aa2565b9050919050565b60006020820190508181036000830152610c6281610ac5565b9050919050565b60006020820190508181036000830152610c8281610ae8565b9050919050565b60006020820190508181036000830152610ca281610b0b565b9050919050565b60006020820190508181036000830152610cc281610b2e565b9050919050565b6000602082019050610cde6000830184610b51565b92915050565b6000604082019050610cf96000830185610b51565b610d066020830184610b51565b9392505050565b600082825260208201905092915050565b6000610d2982610e71565b9150610d3483610e71565b9250827fffffffffffffffffffffffffffffffffffffffffffffffffffffffffffffffff03821115610d6957610d68610e7b565b5b828201905092915050565b6000610d7f82610e71565b9150610d8a83610e71565b925082610d9a57610d99610eaa565b5b828204905092915050565b6000610db082610e71565b9150610dbb83610e71565b9250817fffffffffffffffffffffffffffffffffffffffffffffffffffffffffffffffff0483118215151615610df457610df3610e7b565b5b828202905092915050565b6000610e0a82610e71565b9150610e1583610e71565b925082821015610e2857610e27610e7b565b5b828203905092915050565b6000610e3e82610e51565b9050919050565b60008115159050919050565b600073ffffffffffffffffffffffffffffffffffffffff82169050919050565b6000819050919050565b7f4e487b7100000000000000000000000000000000000000000000000000000000600052601160045260246000fd5b7f4e487b7100000000000000000000000000000000000000000000000000000000600052601260045260246000fd5b600080fd5b7f4578697374696e6720706f736974696f6e206e6f74207965742066696e69736860008201527f6564000000000000000000000000000000000000000000000000000000000000602082015250565b7f4f6e6c7920626f72726f7765722063616e2077697468647261772066756e6473600082015250565b7f4e6f20696e746572657374206163637275656420796574000000000000000000600082015250565b7f496e76616c6964206475726174696f6e00000000000000000000000000000000600082015250565b7f416d6f756e74206d7573742062652067726561746572207468616e2030000000600082015250565b7f546f6b656e207472616e73666572206661696c65640000000000000000000000600082015250565b7f4e6f2066756e647320746f2070756c6c00000000000000000000000000000000600082015250565b61102c81610e45565b811461103757600080fd5b50565b61104381610e71565b811461104e57600080fd5b5056fea2646970667358221220b24947d2e87005d07d9cd227bb3231e6a083050fd985d0845f56fe2fb1c4248c64736f6c63430008070033",
  "immutableReferences": {},
  "source": "// SPDX-License-Identifier: MIT\npragma solidity ^0.8.0;\n\nimport \"@openzeppelin/contracts/token/ERC20/IERC20.sol\";\nimport \"@openzeppelin/contracts/token/ERC20/ERC20.sol\";\n\ncontract Dumpling {\n    mapping(address => uint256) private _balances;\n    mapping(address => uint256) private _timestamps;\n    IERC20 private _token;\n    address private _borrower;\n\n    uint256 private constant _30_DAYS = 30 days;\n    uint256 private constant _60_DAYS = 60 days;\n    uint256 private constant _90_DAYS = 90 days;\n\n    event FundsLent(address indexed lender, uint256 amount, uint256 duration);\n    event FundsWithdrawn(uint256 amount);\n    event FundsPulled(address indexed lender, uint256 amount);\n\n    function lendFunds(uint256 duration) external {\n        require(\n            duration == _30_DAYS ||\n                duration == _60_DAYS ||\n                duration == _90_DAYS,\n            \"Invalid duration\"\n        );\n\n        address lender = msg.sender;\n        require(_balances[lender] == 0, \"Existing position not yet finished\");\n\n        uint256 amount = _token.allowance(lender, address(this));\n        require(amount > 0, \"Amount must be greater than 0\");\n\n        require(_token.transferFrom(lender, address(this), amount), \"Token transfer failed\");\n\n        _balances[lender] += amount;\n        _timestamps[lender] = block.timestamp;\n\n        emit FundsLent(lender, amount, duration);\n    }\n\n    function withdrawFunds(uint256 amount) external {\n        require(msg.sender == _borrower, \"Only borrower can withdraw funds\");\n        require(_token.transfer(_borrower, amount), \"Token transfer failed\");\n        emit FundsWithdrawn(amount);\n    }\n    \n    function pullFunds() external {\n        address lender = msg.sender;\n        require(_balances[lender] > 0, \"No funds to pull\");\n        \n        uint256 amount = calculateInterest(lender);\n        require(amount > 0, \"No interest accrued yet\");\n        \n        _balances[lender] = 0;\n        require(_token.transfer(lender, amount), \"Token transfer failed\");\n        \n        emit FundsPulled(lender, amount);\n    }\n\n    function calculateInterest(address lender) private view returns (uint256) {\n        uint256 balance = _balances[lender];\n        uint256 timestamp = _timestamps[lender];\n        uint256 duration = block.timestamp - timestamp;\n\n        uint256 interestRate;\n        if (duration >= _90_DAYS) {\n            interestRate = 103; // 3% interest for 90 days or more\n        } else if (duration >= _60_DAYS) {\n            interestRate = 102; // 2% interest for 60-89 days\n        } else if (duration >= _30_DAYS) {\n            interestRate = 101; // 1% interest for 30-59 days\n        } else {\n            return 0; // No interest accrued yet\n        }\n\n        return (balance * interestRate * duration) / (100 * 365 days);\n    }\n}\n",
  "sourcePath": "/home/ori/geth/dumplings/contracts/contracts/Dumpling.sol",
  "compiler": {
    "name": "solc",
    "version": "0.8.7+commit.e28d00a7.Emscripten.clang"
  },
  "schemaVersion": "3.4.13",
  "updatedAt": "2023-04-16T00:56:29.213Z",
  "devdoc": {
    "kind": "dev",
    "methods": {},
    "version": 1
  },
  "userdoc": {
    "kind": "user",
    "methods": {},
    "version": 1
  }
}