{
  "contractName": "Dumpling",
  "abi": [
    {
      "anonymous": false,
      "inputs": [
        {
          "indexed": true,
          "internalType": "address",
          "name": "lender",
          "type": "address"
        },
        {
          "indexed": false,
          "internalType": "uint256",
          "name": "amount",
          "type": "uint256"
        },
        {
          "indexed": false,
          "internalType": "uint256",
          "name": "duration",
          "type": "uint256"
        }
      ],
      "name": "FundsLent",
      "type": "event"
    },
    {
      "anonymous": false,
      "inputs": [
        {
          "indexed": true,
          "internalType": "address",
          "name": "lender",
          "type": "address"
        },
        {
          "indexed": false,
          "internalType": "uint256",
          "name": "amount",
          "type": "uint256"
        }
      ],
      "name": "FundsWithdrawn",
      "type": "event"
    },
    {
      "inputs": [
        {
          "internalType": "uint256",
          "name": "duration",
          "type": "uint256"
        }
      ],
      "name": "lendFunds",
      "outputs": [],
      "stateMutability": "payable",
      "type": "function"
    },
    {
      "inputs": [],
      "name": "withdrawFunds",
      "outputs": [],
      "stateMutability": "nonpayable",
      "type": "function"
    }
  ],
  "bytecode": "0x608060405234801561001057600080fd5b506109fa806100206000396000f3fe6080604052600436106100295760003560e01c806324600fc31461002e578063aa2d572114610045575b600080fd5b34801561003a57600080fd5b50610043610061565b005b61005f600480360381019061005a9190610558565b610214565b005b600033905060008060008373ffffffffffffffffffffffffffffffffffffffff1673ffffffffffffffffffffffffffffffffffffffff16815260200190815260200160002054116100e7576040517f08c379a00000000000000000000000000000000000000000000000000000000081526004016100de906106c3565b60405180910390fd5b60006100f28261042f565b905060008111610137576040517f08c379a000000000000000000000000000000000000000000000000000000000815260040161012e90610663565b60405180910390fd5b60008060008473ffffffffffffffffffffffffffffffffffffffff1673ffffffffffffffffffffffffffffffffffffffff168152602001908152602001600020819055508173ffffffffffffffffffffffffffffffffffffffff166108fc829081150290604051600060405180830381858888f193505050501580156101c1573d6000803e3d6000fd5b508173ffffffffffffffffffffffffffffffffffffffff167feaff4b37086828766ad3268786972c0cd24259d4c87a80f9d3963a3c3d999b0d8260405161020891906106e3565b60405180910390a25050565b62278d008114806102275750624f1a0081145b8061023457506276a70081145b610273576040517f08c379a000000000000000000000000000000000000000000000000000000000815260040161026a90610683565b60405180910390fd5b600033905060008060008373ffffffffffffffffffffffffffffffffffffffff1673ffffffffffffffffffffffffffffffffffffffff16815260200190815260200160002054146102f9576040517f08c379a00000000000000000000000000000000000000000000000000000000081526004016102f090610643565b60405180910390fd5b600034905060008111610341576040517f08c379a0000000000000000000000000000000000000000000000000000000008152600401610338906106a3565b60405180910390fd5b806000808473ffffffffffffffffffffffffffffffffffffffff1673ffffffffffffffffffffffffffffffffffffffff168152602001908152602001600020600082825461038f9190610738565b9250508190555042600160008473ffffffffffffffffffffffffffffffffffffffff1673ffffffffffffffffffffffffffffffffffffffff168152602001908152602001600020819055508173ffffffffffffffffffffffffffffffffffffffff167f5b4b4fe0dff3024fa7b95a8159d16ecfa78a0784e2dc0c670d3d2b84a3d48b0282856040516104229291906106fe565b60405180910390a2505050565b6000806000808473ffffffffffffffffffffffffffffffffffffffff1673ffffffffffffffffffffffffffffffffffffffff1681526020019081526020016000205490506000600160008573ffffffffffffffffffffffffffffffffffffffff1673ffffffffffffffffffffffffffffffffffffffff168152602001908152602001600020549050600081426104c59190610819565b905060006276a70082106104dc5760679050610511565b624f1a0082106104ef5760669050610510565b62278d008210610502576065905061050f565b600094505050505061053e565b5b5b63bbf81e0082828661052391906107bf565b61052d91906107bf565b610537919061078e565b9450505050505b919050565b600081359050610552816109ad565b92915050565b60006020828403121561056e5761056d6108b5565b5b600061057c84828501610543565b91505092915050565b6000610592602283610727565b915061059d826108ba565b604082019050919050565b60006105b5601783610727565b91506105c082610909565b602082019050919050565b60006105d8601083610727565b91506105e382610932565b602082019050919050565b60006105fb601d83610727565b91506106068261095b565b602082019050919050565b600061061e601483610727565b915061062982610984565b602082019050919050565b61063d8161084d565b82525050565b6000602082019050818103600083015261065c81610585565b9050919050565b6000602082019050818103600083015261067c816105a8565b9050919050565b6000602082019050818103600083015261069c816105cb565b9050919050565b600060208201905081810360008301526106bc816105ee565b9050919050565b600060208201905081810360008301526106dc81610611565b9050919050565b60006020820190506106f86000830184610634565b92915050565b60006040820190506107136000830185610634565b6107206020830184610634565b9392505050565b600082825260208201905092915050565b60006107438261084d565b915061074e8361084d565b9250827fffffffffffffffffffffffffffffffffffffffffffffffffffffffffffffffff0382111561078357610782610857565b5b828201905092915050565b60006107998261084d565b91506107a48361084d565b9250826107b4576107b3610886565b5b828204905092915050565b60006107ca8261084d565b91506107d58361084d565b9250817fffffffffffffffffffffffffffffffffffffffffffffffffffffffffffffffff048311821515161561080e5761080d610857565b5b828202905092915050565b60006108248261084d565b915061082f8361084d565b92508282101561084257610841610857565b5b828203905092915050565b6000819050919050565b7f4e487b7100000000000000000000000000000000000000000000000000000000600052601160045260246000fd5b7f4e487b7100000000000000000000000000000000000000000000000000000000600052601260045260246000fd5b600080fd5b7f4578697374696e6720706f736974696f6e206e6f74207965742066696e69736860008201527f6564000000000000000000000000000000000000000000000000000000000000602082015250565b7f4e6f20696e746572657374206163637275656420796574000000000000000000600082015250565b7f496e76616c6964206475726174696f6e00000000000000000000000000000000600082015250565b7f416d6f756e74206d7573742062652067726561746572207468616e2030000000600082015250565b7f4e6f2066756e647320746f207769746864726177000000000000000000000000600082015250565b6109b68161084d565b81146109c157600080fd5b5056fea264697066735822122054543b531783412ace004aa467ee8b4a48c17e21b482dfa2dd5f721f416ed0bb64736f6c63430008070033",
  "immutableReferences": {},
  "source": "// SPDX-License-Identifier: MIT\npragma solidity ^0.8.0;\n\ncontract Dumpling {\n    mapping(address => uint256) private _balances;\n    mapping(address => uint256) private _timestamps;\n    \n    uint256 private constant _30_DAYS = 30 days;\n    uint256 private constant _60_DAYS = 60 days;\n    uint256 private constant _90_DAYS = 90 days;\n    \n    event FundsLent(address indexed lender, uint256 amount, uint256 duration);\n    event FundsWithdrawn(address indexed lender, uint256 amount);\n    \nfunction lendFunds(uint256 duration) external payable {\n    require(duration == _30_DAYS || duration == _60_DAYS || duration == _90_DAYS, \"Invalid duration\");\n    \n    address payable lender = payable(msg.sender);\n    require(_balances[lender] == 0, \"Existing position not yet finished\");\n    \n    uint256 amount = msg.value;\n    require(amount > 0, \"Amount must be greater than 0\");\n    \n    _balances[lender] += amount;\n    _timestamps[lender] = block.timestamp;\n    \n    emit FundsLent(lender, amount, duration);\n}\n    \nfunction withdrawFunds() external {\n    address payable lender = payable(msg.sender);\n    require(_balances[lender] > 0, \"No funds to withdraw\");\n    \n    uint256 amount = calculateInterest(lender);\n    require(amount > 0, \"No interest accrued yet\");\n    \n    _balances[lender] = 0;\n    lender.transfer(amount);\n    \n    emit FundsWithdrawn(lender, amount);\n}\n\nfunction calculateInterest(address lender) private view returns(uint256) {\n    uint256 balance = _balances[lender];\n    uint256 timestamp = _timestamps[lender];\n    uint256 duration = block.timestamp - timestamp;\n    \n    uint256 interestRate;\n    if (duration >= _90_DAYS) {\n        interestRate = 103; // 3% interest for 90 days or more\n    } else if (duration >= _60_DAYS) {\n        interestRate = 102; // 2% interest for 60-89 days\n    } else if (duration >= _30_DAYS) {\n        interestRate = 101; // 1% interest for 30-59 days\n    } else {\n        return 0; // No interest accrued yet\n    }\n    \n    return (balance * interestRate * duration) / (100 * 365 days);\n}\n}\n",
  "sourcePath": "/Users/prnth/Documents/GitHub/Dumplings/contracts/contracts/Dumpling.sol",
  "compiler": {
    "name": "solc",
    "version": "0.8.7+commit.e28d00a7.Emscripten.clang"
  },
  "schemaVersion": "3.4.13",
  "updatedAt": "2023-04-15T16:16:46.230Z",
  "devdoc": {
    "kind": "dev",
    "methods": {},
    "version": 1
  },
  "userdoc": {
    "kind": "user",
    "methods": {},
    "version": 1
  }
}